S0150000426F6F746C6F6164657241746D2E73726563E2
S113D0000E94CA700E94137198E19093C1008091AC
S113D0106F00826080936F008BB18F7C80628BB9CC
S113D0209093C90082E390E00E94677082E091E0EF
S113D0300E94A4720E94737580913F0690914006ED
S113D040893D9E401CF010923E0603C081E080930F
S113D0503E0689E091E00E94A47284B7877F84BF72
S113D0608091600088618093600010926000A895B0
S113D07089E38093600089E28093600084B71F9203
S113D0808F9383E191E09F938F930E94AA720F90F4
S113D0900F900F900F9008957F928F929F92AF926E
S113D0A0BF92CF92DF92EF92FF920F931F93CF9391
S113D0B0DF93E82EC1E0D0E08CE7C82E82E0D82EC2
S113D0C090EAA92E92E0B92E2FEA822E22E0922E27
S113D0D032E0732E43E0F42E0BEB12E0DF93CF9398
S113D0E0DF92CF920E94AA720E94D9760F900F907D
S113D0F00F900F90882321F0C13011F4EE20A9F095
S113D10083E992E00E94A4725F9A88EE93E00E9401
S113D1107B700E94D37681E090E00E947B700E9435
S113D120D5768FE090E00E947B70BF92AF920E9410
S113D130AA720E94D9761F928F939F928F920E9417
S113D140AA720F900F900F900F900F900F90EE20F7
S113D15079F0DF91CF911F910F91FF90EF90DF90C5
S113D160CF90BF90AF909F908F907F900C94D97682
S113D1700E94D97681110DC00E94D77681E090E09B
S113D1800E947B702196C430D10509F0A7CF80E0BE
S113D1901EC081E090E00E947B701F921F921F923C
S113D1A01F921F927F921F92FF921F92FF921F93D2
S113D1B00F930E947E782DB73EB7245F3F4F0FB682
S113D1C0F8943EBF0FBE2DBF8111D6CF81E0DF9111
S113D1D0CF911F910F91FF90EF90DF90CF90BF9070
S113D1E0AF909F908F907F90089524EE3EE03F9300
S113D1F02F932AE334E03F932F939F938F930E94BE
S113D2003E7121E00F900F900F900F900F900F90B0
S113D210019709F020E0822F08950C94F5680E948C
S113D220B4762DE434E03F932F939F938F930E9421
S113D2303E7121E00F900F900F900F90019709F02D
S113D24020E0822F08950E94B4762DE534E03F93C8
S113D2502F939F938F930E943E7121E00F900F9024
S113D2600F900F90019709F020E0822F0895AF925C
S113D270BF92CF92DF92EF92FF920F931F93CF93BF
S113D280DF93D82FB92EC3E00FEB13E08DE0E82E27
S113D29089E6F82E94E1A92E2DE6C22E24E0D22EA2
S113D2A01092E50E1092E40E1F930F93BF92DF933A
S113D2B0FF92EF921F92AF92DF92CF920E94BD78BD
S113D2C02DB73EB7265F3F4F0FB6F8943EBF0FBE53
S113D2D02DBF813041F082E090E00E947B70C1500C
S113D2E0F9F680E00BC00E940F698823A1F38091B6
S113D2F0E40E9091E50E892B71F381E0DF91CF91DB
S113D3001F910F91FF90EF90DF90CF90BF90AF905F
S113D31008952F923F924F925F926F927F928F92D5
S113D3209F92AF92BF92CF92DF92EF92FF920F93B0
S113D3301F93CF93DF93482E392E0E9437698111B2
S113D34002C080E09BC0E090E40EF090E50EC0E0E7
S113D350D0E094E1292E22E0822E25E0922ECE15F3
S113D360DF0508F086C083E0582E6701CC1ADD0A79
S113D3705E0121E0A21AB108860131E0C31636E04D
S113D380D30610F000E016E01092E50E1092E40EC1
S113D390C501800F911F9F938F93DF93CF932FEB42
S113D3A033E03F932F933F924F9225EF38E63F931C
S113D3B02F931F922F922EEA34E03F932F930E94D3
S113D3C0BD782DB73EB7225F3F4F0FB6F8943EBFEE
S113D3D00FBE2DBF813009F044C00E942369882309
S113D3E009F43FC00E94C3769F938F931F930F93BA
S113D3F08091E50E8F938091E40E8F939F928F928C
S113D4000E94AA720E94C3763C018DB79EB708960B
S113D4100FB6F8949EBF0FBE8DBF0615170509F50C
S113D4200E94B7768C016114710409F498CFA301AA
S113D43091E06916790610F040E051E04093E40E63
S113D4405093E50EB801CE010E945F7B8091E40EFB
S113D4509091E50EC80FD91F681A790A080F191F91
S113D460E2CF82E090E00E947B705A94511084CF06
S113D47068CF8DE195E00E94A47281E0DF91CF91A5
S113D4801F910F91FF90EF90DF90CF90BF90AF90DE
S113D4909F908F907F906F905F904F903F902F90D0
S113D4A00895DF92EF92FF920F931F93CF93DF9330
S113D4B0D82FC3E00FEB13E08EE1D82E93E2E92ED0
S113D4C095E0F92E1092E50E1092E40E0E948473FA
S113D4D01F930F939F938F9380913D068F93809119
S113D4E03C068F931F92DF93809172058F938091F6
S113D4F071058F93809170058F9380916F058F9341
S113D5001F921F921F92DF92FF92EF920E94BD78AA
S113D5102DB73EB72E5E3F4F0FB6F8943EBF0FBEF9
S113D5202DBF87FF08C082E090E00E947B70C1504D
S113D53049F680E005C00E940F698823A1F381E0C9
S113D540DF91CF911F910F91FF90EF90DF9008959D
S113E0000C943E700C945B700C945B700C945B707D
S113E0100C945B700C945B700C945B700C945B7050
S113E0200C9440730C945B700C945B700C945B7058
S113E0300C945B700C941C730C945B700C945B706C
S113E0400C945B700C945B700C945B700C945B7020
S113E0500C945B700C945B700C945B700C945B7010
S113E0600C945B700C945B700C945B700C945B7000
S113E0700C945B700C945B700C945B7011241FBE49
S113E080CFEFD0E1DEBFCDBF15E0A0E0B1E0E8E521
S113E090F8EF02C005900D92AA36B107D9F72EE029
S113E0A0AAE6B5E001C01D92A63EB207E1F70E94C0
S113E0B031740C942A7C0C94007080916D059091BD
S113E0C06E05019690936E0580936D0508952091D9
S113E0D06D0530916E0564E670E00E94A47B80912A
S113E0E06D0590916E05821B930B8617970710F4AC
S113E0F0A895F5CF089540916D0550916E052AE0DD
S113E100BC01269FC001279F900D112420916D050D
S113E11030916E05241B350B2817390710F4A89588
S113E120F5CF0895F999FECF42E050E060E074E045
S113E13080ED95E00E94027C41E650E060E070E0F2
S113E1408FE695E00E94027C80917E05823010F07B
S113E15010927E0580916F0590917005A0917105D4
S113E160B09172058F3F9F4FAF4FBF4F41F4109254
S113E1706F05109270051092710510927205089542
S113E180F999FECF42E050E060E074E080ED95E064
S113E1900C94127CE1E6F0E080E88083108290EE3B
S113E1A091B912B893E094B915B894E797B998E87F
S113E1B098B99AE79AB99AEB9BB914BC15BC16BCEA
S113E1C017BC18BC109280009AE0909381009CE4E4
S113E1D0909385001092840010928700109286001C
S113E1E093EB909389009FEF9093880010928B009B
S113E1F010928A001092B6001092B0001092B100F2
S113E2001092B2001092B3001092B40010926E00FB
S113E21092E090936F001092700080BF10927B0088
S113E22010927F0008951092C0001092C10096E0F1
S113E2309093C2001092C5008BE08093C40022E04A
S113E2402093C8001092C9009093CA001092CD0088
S113E2508093CC008DEF80937E0080EC80937C00D3
S113E26087E080937A0010927B001CBC1092BC0063
S113E270109269001DBA109268000895CF92DF923F
S113E280EF92FF921F93CF93DF93CDB7DEB7CA848B
S113E290DB842C853D85D9018C918E3511F42F5F5B
S113E2A03F4FFE013E9680E01AE0D9019C919923EC
S113E2B009F47AC0953209F06BC0A9014E5F5F4F33
S113E2C0D90111969C91953629F128F4923699F04A
S113E2D0943689F067C0903791F0933709F062C0A3
S113E2E0BF016E5F7F4F0190F081E02DD90112963E
S113E2F0FC90960141C0760160E070E00DC09F0182
S113E3002E5F3F4F0190F081E02D309761F1D18273
S113E310C08229C09F0127C06701D7013C91BFEF8C
S113E320EB1AFB0A20ED230F2A3068F4169FD00164
S113E330179FB00D1124232F30E020533109B90168
S113E3406A0F7B1FE9CF9F012E5F3F4F0190F08141
S113E350E02D923621F4309731F0608304C0309779
S113E36011F0718360838F5FF9011CC0992351F010
S113E370309711F0908331966901D9019D919D01E7
S113E380F912F4CF309709F010828F5FFB010AC0B5
S113E390D6014C91941308C0A9014F5F5F4FBFEFA2
S113E3A0CB1ADB0A9A0181CF90E0DF91CF911F91C4
S113E3B0FF90EF90DF90CF9008957F928F929F927D
S113E3C0AF92BF92CF92DF92EF92FF920F931F937F
S113E3D0CF93DF93EC01FA018AE0882E912CA12CD3
S113E3E0B12CDB018C91882309F47AC06B0185324E
S113E3F009F06BC082E0C80ED11CDB0111968C9130
S113E4008436E1F038F4833209F44BC0823609F0E3
S113E41063C014C08C3651F0833709F05DC08F019E
S113E4200E5F1F4FA081B181FE0135C08F010C5FCB
S113E4301F4F208131814281538107C08F010E5FBC
S113E4401F4F2081318140E050E07C2EEC2EFD2EC8
S113E450CA01B901A50194010E94B87B605DD7018E
S113E4606D937D019A2F97192115310541055105A9
S113E47079F7892FDE01823058F02C91E82FF0E0F3
S113E4803197EA0FFB1F30813D9320838250F3CFF5
S113E490C90FD11D22C0EF018D918823F1F0819322
S113E4A0FACF8F010C5F1F4F20813181DE01828101
S113E4B0ED01F90191919F01992379F0882369F085
S113E4C08150933251F09D93F3CF9FEFC91AD90A2B
S113E4D088838F01219601C08F01F801B60181CF95
S113E4E01882CE01DF91CF911F910F91FF90EF9091
S113E4F0DF90CF90BF90AF909F908F907F900895C2
S113E500CF93DF93CDB7DEB7AE01475F5F4F6F8127
S113E51078858D819E810E94DD71DF91CF91089570
S113E5209091C80095FFFCCF8093CE000895FC0124
S113E5309191992341F0A8958091C80085FFFCCF63
S113E5409093CE00F5CF08950E9497728FEF94E0D8
S113E5500C949772CF93DF93CDB7DEB7AE014B5FC8
S113E5605F4FFA0161917191AF0182ED95E00E94D4
S113E570DD7182ED95E00E9497728FEF94E00E9426
S113E5809772DF91CF910895CF93C82F811103C063
S113E5908AE391E002C088E291E00E94A47284E6DA
S113E5A090E00E9467701092490680EE81B912B81B
S113E5B083E084B915B897E797B988B98AE78AB927
S113E5C080E28BB91092C90080916F008D7F809397
S113E5D06F0084B7C1110CC0886084BFA895809176
S113E5E0600088618093600081EE8093600009C0C0
S113E5F0877F84BF8091600088618093600010925F
S113E6006000109244061092430680914306909154
S113E6104406409748F483B7846083BF83B781601E
S113E62083BF88950000F1CF80E00E94006884E4F5
S113E63091E0CF910C94A4721F920F920FB60F9297
S113E64011242F933F934F935F936F937F938F93F3
S113E6509F93AF93BF93EF93FF930E945D70FF91DD
S113E660EF91BF91AF919F918F917F916F915F9146
S113E6704F913F912F910F900FBE0F901F901895BF
S113E6801F920F920FB60F9211248F939F93809134
S113E690430690914406089690934406809343065B
S113E6A09F918F910F900FBE0F901F901895F89423
S113E6B081E085BF15BEA895E0E6F0E089E380839C
S113E6C089E2808310928100AFE6B0E08C918D7F67
S113E6D08C9325B7908184B71F922F931F929F9399
S113E6E01F928F9383E691E09F938F930E94AA7267
S113E6F0A8958DB79EB708960FB6F8949EBF0FBE27
S113E7008DBFE0E0F0E0099481E991E00895680F9D
S113E710791F8617970709F1FC012491542745278F
S113E720542742279A013327E4E036952795EA9542
S113E730E1F7422753279A01322F22273295307F5F
S113E740422753279A013327A5E0220F331FAA95A6
S113E750E1F7422753270196DCCFCA0108951092AE
S113E760360646E050E060E07FEC88E396E00E94E5
S113E770E97B4FEF5FEF60E07FEC80E090E00E9488
S113E780877380934106909342069F938F93809161
S113E7903B068F9380913A068F9380913D068F9329
S113E7A080913C068F9385E991E09F938F930E941B
S113E7B0AA728DB79EB708960FB6F8949EBF0FBE87
S113E7C08DBF80913806909139068D349E4471F442
S113E7D020913A0630913B06809141069091420681
S113E7E02817390719F481E0809336060895CF93EA
S113E7F082EB91E00E94A47280E00E944C68811137
S113E80002C0C0E029C080910001882331F081E07A
S113E8100E94F97A8823A9F305C00E945C798823B1
S113E82081F3F5CF83E00E94516A882351F38091EC
S113E830D0059091D1050E948969882339F00E94FE
S113E840AF73C0913606C11104C001C0C0E084E0BA
S113E85001C081E00E94516A0E94247B8C2FCF91D9
S113E8600895F894C1E0C5BF82E085BF7894A89567
S113E87081E00E9400680E94927089E380936000A6
S113E88089E28093600084B7837011F0C0934906D5
S113E89084B7909172059F93909171059F93909185
S113E8A070059F9390916F059F939091D1059F93CD
S113E8B09091D0059F931F928F9381E991E09F934C
S113E8C08F9382EC91E09F938F930E94AA72809120
S113E8D0D0059091D105019721E04DB75EB7445F13
S113E8E05F4F0FB6F8945EBF0FBE4DBF8E3F9F4F74
S113E8F008F020E02093370610924A060E94D97649
S113E90080930001882321F080EE91E00E94A4729C
S113E9100E94AF7380913706811105C0809136063D
S113E92081110E9457738091360681110BC080912A
S113E9303706811107C081E0809337061092D10514
S113E9401092D005CBEED1E080913706A8958823AC
S113E950E9F380913E06882371F00E94247B0E9493
S113E960AF7380913606882319F00E94577303C051
S113E97081E00E94C4720E94F773882359F01092B8
S113E98037061092D1051092D0050E94C0700E94E3
S113E9905773DACF80914A061F928F93DF93CF93F8
S113E9A00E94AA720F900F900F900F908091000117
S113E9B0882329F00E94247B10920001C5CF809106
S113E9C04A068F5F80934A06833038F00E94AF7303
S113E9D08091360681110E9457730E94247B80E047
S113E9E00E94C472B1CF806C80937C0081E090E07F
S113E9F00E94677080917A00806480937A0080918D
S113EA007A0084FFFCCF80917A00806180937A0041
S113EA10809178009091790008958F929F92AF929F
S113EA20BF92CF92DF92EF92FF920F931F93CF93F7
S113EA30DF93882E87E880937A008AE090E00E9432
S113EA40677080917A00806880937A004AE0942EFF
S113EA500FEF1FEFA12CB12CC0E0D0E0882D0E9455
S113EA60F3749C01A0E0BAE00E94DA7B6B017C01A4
S113EA703AE0F694E794D794C7943A95D1F78AE0AC
S113EA8090E00E946770C501A0E0B0E08C159D0580
S113EA90AE05BF0508F45601C801A0E0B0E0C816F1
S113EAA0D906EA06FB0608F48601CC0DDD1D9A940E
S113EAB09110D4CFCE018A199B09801B910B10921F
S113EAC07A0023E0969587952A95E1F7DF91CF9117
S113EAD01F910F91FF90EF90DF90CF90BF90AF9078
S113EAE09F908F9008950898109881E00E940D756A
S113EAF0880F991F8C599F4F9093400680933F062F
S113EB009F938F9384E092E09F938F930E94AA72C5
S113EB100F900F900F900F9008950F931F93CF9322
S113EB20DF93CDB7DEB72A970FB6F894DEBF0FBEDA
S113EB30CDBFFC019F018191811102C080E02EC0F4
S113EB408934C1F780818436A9F781818A3391F7AA
S113EB508E010F5F1F4F1F930F938EE092E09F93E0
S113EB608F933F932F930E943E710F900F900F90BD
S113EB700F900F900F90019709F7F801ACEDBEE0EC
S113EB809E012A5F3F4F8191811101C08AE28D93DA
S113EB902E173F07C1F71092E10E81E02A960FB6B7
S113EBA0F894DEBF0FBECDBFDF91CF911F910F91BF
S113EBB00895CF93DF9300D0CDB7DEB79E012F5FCA
S113EBC03F4F3F932F932F5F3F4F3F932F9325E169
S113EBD032E03F932F939F938F930E943E710FB621
S113EBE0F894DEBF0FBECDBF029729F48A818093CB
S113EBF0E20E81E001C080E00F900F90DF91CF9191
S113EC0008952F923F924F925F926F927F928F92CC
S113EC109F92AF92BF92CF92DF92EF92FF920F93A7
S113EC201F93CF93DF93CDB7DEB72E970FB6F8942B
S113EC30DEBF0FBECDBF9E878D878E01035F1F4F42
S113EC401F930F9381E292E09F938F938E858F930E
S113EC508D858F930E943E710F900F900F900F90AF
S113EC600F900F90019709F065C0412C3E012BE0F5
S113EC70620E711CCE0101967C015E019CE0A90E1E
S113EC80B11C9BE2892E92E0992E2CE0322EED8568
S113EC90FE858081883209F04AC01F930F937F92CA
S113ECA06F92FF92EF921F921F92BF92AF929F9228
S113ECB08F92FF93EF930E943E710FB6F894DEBFDC
S113ECC00FBECDBF059799F520906C0539E032153C
S113ECD028F186E6C82E8EE0D82E512C521459F015
S113ECE0B701C6010E94F27B2CE0C20ED11C892B15
S113ECF0A9F05394F3CF359CC0011124FC01EC59C5
S113ED00F14F2C8520832B852183B7018A59914F9C
S113ED100E94FB7B539450926C054394ED85FE85D1
S113ED2080818C3221F43196FE87ED87B0CF81E06B
S113ED30411001C080E02E960FB6F894DEBF0FBEDE
S113ED40CDBFDF91CF911F910F91FF90EF90DF9096
S113ED50CF90BF90AF909F908F907F906F905F9077
S113ED604F903F902F9008958BE496E00895809102
S113ED704D0E90914E0E97FD03C0855B994F0895FB
S113ED8080E090E0089520914D0E30914E0E37FDB5
S113ED9007C080914B0E90914C0E821B930B0895EB
S113EDA080E090E00895449A0895449808955F9807
S113EDB0089586B186FB882780F991E08927089514
S113EDC020E432E03F932F939F938F930E943E71F0
S113EDD021E00F900F900F900F90019709F020E021
S113EDE0822F089528E432E03F932F939F938F93CB
S113EDF00E943E7121E00F900F900F900F900197A9
S113EE0009F020E0822F089523E532E03F932F9309
S113EE109F938F930E943E7121E00F900F900F906B
S113EE200F90019709F020E0822F089520E632E048
S113EE303F932F939F938F930E943E7121E00F90F5
S113EE400F900F900F90019709F020E0822F089502
S113EE508091C00087FF08C09091C0008091C600D7
S113EE609C7111F490E008958FEF9FEF08957F92C5
S113EE708F929F92AF92BF92CF92DF92EF92FF92C6
S113EE800F931F93CF93DF93F82EC92F8B015A0151
S113EE90D22F8EE30E9490728F2D9C2F0E94977226
S113EEA0A895EF2DFC2F8191882349F09091C00003
S113EEB095FD02C00000FACF8093C600F4CFC09045
S113EEC06D05D0906E058AE0809F7001819FF00CE3
S113EED0112410924B0610924C0E10924B0EC0E06F
S113EEE000E010E0A89580916D0590916E058C1955
S113EEF09D098E159F0518F0D11161C0CFC00E94E5
S113EF00287797FDEFCF682F20914B0E30914C0E50
S113EF102F3F374020F010924C0E10924B0E409130
S113EF204B0E50914C0E9A012F5F3F4F30934C0E75
S113EF3020934B0EFA01E55BF94F8083F901E55B01
S113EF40F94F1082D13049F4CC2339F0C0906D05CB
S113EF50D0906E0542E0E42EF12C6A3019F6201BA5
S113EF60310B233031054CF4C0906D05D0906E0503
S113EF70C1E092E0E92EF12C1DC0D1111BC0055B4C
S113EF80194FC8010E94E076811119C0C8010E947E
S113EF90F276882329F089E692E00E94A4727EC06A
S113EFA0C8010E94047781110AC0C8010E94167723
S113EFB0811105C000914B0E10914C0E93CF8FEF31
S113EFC09FEF90934E0E80934D0E8BE4E82E86E0D7
S113EFD0F82E00E010E0812C912CC0E080914B0EC3
S113EFE090914C0E081719070CF046C00F5F1F4F85
S113EFF0F70181917F018A3089F7708010828CE358
S113F0000E949072C401855B994F6C010E949772B3
S113F010D13081F4C801881999090397E4F4F801FF
S113F020E55BF94F708210934E0E00934D0EF6017E
S113F030108222C0D1111CC0C801881999090397F4
S113F040BCF0C6010E94E076811112C0C6010E9484
S113F050047781110DC0A114B10451F0C601F5016A
S113F06009958823E9F080E792E00E94A472CF5FBB
S113F070F70170824801B2CF8C2F0C2E000C990B33
S113F0809F93CF9386E792E09F938F930E94AA72F7
S113F0900F900F900F900F908C2F07C08FEF05C02B
S113F0A083E792E00E94A472E3CFDF91CF911F9196
S113F0B00F91FF90EF90DF90CF90BF90AF909F9013
S113F0C08F907F90089520E00C943777CF93DF934F
S113F0D0CDB7DEB7AE01455F5F4F6D817E818BE4B6
S113F0E096E00E94DD7149855A856F8178858BE4AD
S113F0F096E00E946378DF91CF910895EF92FF929A
S113F1000F931F93CF93DF93CDB7DEB7E988FA88C7
S113F11000E010E08D859E850817190734F5AE01CF
S113F1204B5E5F4F69857A858BE496E00E94DD71C2
S113F1304B895C896B857C858BE496E00E946378BF
S113F14094E6E916F10419F4181644F40FC0282FB4
S113F150082E000C330BE216F30641F08F859889D4
S113F1600E947B700F5F1F4FD5CF8FEFDF91CF9140
S113F1701F910F91FF90EF900895CF93DF93CDB738
S113F180DEB7AE01455F5F4F6D817E818BE496E013
S113F1900E94DD7121E049855A856F8178858BE471
S113F1A096E00E943777DF91CF9108950F931F93D4
S113F1B0CF93DF93CDB7DEB72A970FB6F894DEBFAF
S113F1C00FBECDBF80917E058130F9F41F9284E09B
S113F1D08F932FE735E03F932F931F928F9384E80B
S113F1E095E09F938F9381ED92E09F938F938E018F
S113F1F00F5F1F4F1F930F930E9480720FB6F894F6
S113F200DEBF0FBECDBFC80108C080916B053CE0D6
S113F210839FC00111248A59914F9F938F931F920A
S113F2201F921F9282E08F9386ED92E09F938F93BB
S113F2300E94667891E00FB6F894DEBF0FBECDBF92
S113F240811190E0892F2A960FB6F894DEBF0FBE85
S113F250CDBFDF91CF911F910F910895CF93DF938D
S113F26000D0CDB7DEB79E012F5F3F4F3F932F9362
S113F2702F5F3F4F3F932F937F936F939F938F9372
S113F2800E943E710FB6F894DEBF0FBECDBF029749
S113F29029F499819B7F81E0913009F080E00F90FF
S113F2A00F90DF91CF91089569EE72E00C942E795E
S113F2B066EF72E00C942E79CF9386EE91E00E9473
S113F2C0A4721092E20EC0910001C11149C040E045
S113F2D050E063E070E080E293E00E94637887FD91
S113F2E040C090917E05911105C081E020916A058E
S113F2F0213009F480E08093E30E10926B051092A4
S113F3006C05992329F08CE293E00E94A47228C032
S113F3108823C9F381E096E79F938F931F9284E635
S113F3208F931F928AE08F931F928FE08F931F9287
S113F3308AE58F9384E393E09F938F930E947E7872
S113F3402DB73EB7245F3F4F0FB6F8943EBF0FBEB4
S113F3502DBF181634F480916C058111D4CF01C0EF
S113F360C1E08C2FCF910895DF92EF92FF920F931B
S113F3701F93CF93DF9380910001811105C1809188
S113F380E30E811128C08AE090E00E947B70809196
S113F3906A05813089F184E599E79F938F931F92E1
S113F3A081E08F931F9284E08F931F928EE18F935D
S113F3B01F9283E08F9380E493E09F938F930E9446
S113F3C07E782DB73EB7245F3F4F0FB6F8943EBF0B
S113F3D00FBE2DBF11C090916B0580916C059817DD
S113F3E030F080917E05811102C080E0FAC00E9455
S113F3F0D6788111C8CFF9CF88E599E79F938F9389
S113F4001F9281E08F931F9284E08F931F928FE06D
S113F4108F931F9283E08F938BE493E09F938F935A
S113F4200E947E782DB73EB7245F3F4F0FB6F89405
S113F4303EBF0FBE2DBF8130C1F640E050E063E017
S113F44070E087E593E00E94637887FDCECF4DE8B6
S113F45055E763E070E082E693E00E9463788130D0
S113F46021F649ED55E763E070E08FE693E00E94F2
S113F4706378813009F0B9CF9091E20E9C3008F4A2
S113F480B4CF90916A05913031F480916A0581304E
S113F490F9F081E01EC01F921F921F921F921F92CB
S113F4A08F931F9282E08F931F928F9388E793E04C
S113F4B09F938F930E947E782DB73EB7245F3F4F72
S113F4C00FB6F8943EBF0FBE2DBF87FFDECF8DCFA2
S113F4D083E0809301011F9290E29F932FEA35E02D
S113F4E03F932F931F928F931F921F921F9282E03C
S113F4F08F9385E893E09F938F930E9466782DB74E
S113F5003EB7245F3F4F0FB6F8943EBF0FBE2DBFEA
S113F51081116BCF809101011F928F931F921F92D3
S113F5201F92CAE0CF938FE993E09F938F930E9439
S113F5306678809101011F928F931F921F921F92F0
S113F5401F921F9281E08F931F92CF931F92CF93AC
S113F5508FEA93E09F938F930E947E782DB73EB7F6
S113F5602A5E3F4F0FB6F8943EBF0FBE2DBF87FDF6
S113F5703CCFC4E0D0E00FEB13E088E2D82E96ED48
S113F580E92E93E0F92E17C049ED55E763E070E0EA
S113F5908FE693E00E946378813009F026CF809152
S113F5A0E20E8A3030F721CF81E090E00E947B7038
S113F5B0219709F41ACF1F930F931F921F921F9242
S113F5C0DF92FF92EF920E9466782DB73EB7285FD4
S113F5D03F4F0FB6F8943EBF0FBE2DBF87FDE4CF5B
S113F5E081E0DF91CF911F910F91FF90EF90DF9019
S113F5F00895CF93C82F88EF93E00E94A4721092CD
S113F6006B050E94B479811118C0CC23D9F0909174
S113F6100001911117C090916B0520916C05921710
S113F62088F420917E0521110DC08091E30E88237A
S113F63049F09F5F90936B05E4CF80E094E00E94D3
S113F640A47281E0CF910895CF930E94D976882344
S113F65099F18BE094E00E94A47240E050E061E0F4
S113F66070E081E194E00E94637840E050E061E062
S113F67070E087E194E00E94637840E050E061E04C
S113F68070E086E294E00E946378CFE00E94D9762D
S113F690811107C00E94D976882351F00E94D77641
S113F6A007C081E090E00E947B70C15079F7F2CFEF
S113F6B081E394E00E94A47281E0CF9108950F93B6
S113F6C01F93CF938A015FB7F894A895F999FECF59
S113F6D0A89523E0FC0120935700E89507B600FCA9
S113F6E0FDCFA0E0B0E0C1E0A017B10758F4FB01E2
S113F6F04081218130E0322F2227240F311D6E5F9B
S113F7007F4F02C02FEF3FEFFC01EA0FFB1F0901FF
S113F710C0935700E89511241296A115F1E0BF0794
S113F72019F7A89525E0FC0120935700E89507B642
S113F73000FCFDCFA89581E180935700E8955FBF59
S113F740CF911F910F910895AA1BBB1B51E107C0D4
S113F750AA1FBB1FA617B70710F0A61BB70B881F5D
S113F760991F5A95A9F780959095BC01CD010895EC
S113F770A1E21A2EAA1BBB1BFD010DC0AA1FBB1FB1
S113F780EE1FFF1FA217B307E407F50720F0A21B23
S113F790B30BE40BF50B661F771F881F991F1A9490
S113F7A069F760957095809590959B01AC01BD01BA
S113F7B0CF010895A29FB001B39FC001A39F700D14
S113F7C0811D1124911DB29F700D811D1124911D65
S113F7D00895FB01DC0102C005900D924150504098
S113F7E0D8F70895FB01DC018D9101908019011077
S113F7F0D9F3990B0895FB01DC0101900D920020CF
S113F800E1F70895DC01CB01FC01F999FECF06C0B4
S113F810F2BDE1BDF89A319600B40D9241505040CA
S113F820B8F70895DC01CB0103C02D910E941D7C23
S113F83041505040D0F70895262FF999FECF1FBAB2
S113F84092BD81BD20BD0FB6F894FA9AF99A0FBE05
S10BF85001960895F894FFCF1E
S113F858010157616B65757000456E61626C6520C6
S113F868574400456E642077616B6575703A204D86
S113F8784355535220256400506F776572446F775F
S113F8886E20466F726576657200506F77657244B4
S113F8986F776E00506F776572446F776E20656E70
S113F8A864003031323334353637383941424344D1
S113F8B84546004A756D7020746F206170702C2065
S113F8C84D435553523A2025642C205744544353EE
S113F8D8523A2025642C204D435543523A2025643E
S113F8E800322E300041505020763A2025642C20D6
S113F8F86372633A2025642C20616372633A20257D
S113F9086400537461727420535720557064617491
S113F9186500424C207625732072723A2025642CA7
S113F9282070753A2025642C2069643A20256C00DF
S113F93853484F525420494E4954005570677261D8
S113F9486465207265747279202564206661696C27
S113F95865642E0042415420763A202564004964A7
S113F9683A257320002B4353513A2025622C2562F3
S113F978002B434F50533A202570002825622C222F
S113F9882573222C2C222573222C2562292570000C
S113F9985E4F4B0D0A2565005E4552524F520D0AC3
S113F9A82565005E434F4E4E4543540D0A256500B8
S113F9B85E5244590D0A2565003C4552524F520087
S113F9C83A29003A28003D3E2025640053657474A2
S113F9D8696E67206D6F64656D206F6E2E205220EE
S113F9E825640049676E697465206D6F64656D00F0
S113F9F861667465722069676E6974696F6E004D1B
S113FA086F64656D2069732025640041540D0A00F4
S113FA182B5153494D535441543A2025622C2562A5
S113FA2800252325230041542B434F50533D312CAB
S113FA38322C222573220D0A002B435245473A20C3
S113FA4825622C2562002B43475245473A202562FC
S113FA582C2562002B43455245473A2025622C2524
S113FA6862002353474143543A2025622C256200FF
S113FA7841542B434F50533D300D0A00494E4954CD
S113FA88204F4B0041542B434F50533D3F0D0A0028
S113FA9841542B435245473F0D0A0041542B4347D9
S113FAA85245473F0D0A0041542B434F50533F0DD5
S113FAB80A0041542B514E57494E464F0D0A0041F6
S113FAC8542B4353510D0A0041542B43474154547A
S113FAD83D310D0A0041542B434744434F4E543D96
S113FAE825622C224950222C222523220D0A00416A
S113FAF8542B43474143543D25622C300D0A0041A1
S113FB08542B43474143543D25622C310D0A00626E
S113FB186F6F746C6F616465722E70687974656355
S113FB28682E636F6D0041542B51494F50454E3D2B
S113FB38312C302C22544350222C222573222C3869
S113FB48302C302C320D0A00434F4E4E454354009E
S113FB58434F4E4E454354204F4B00434C4F53455F
S113FB68002B2B2B0D0A0041542B5149434C4F5366
S113FB78453D300D0A0041542B51504F57440D0A4E
S113FB8800434C4F5345204F4B00436F6E74656ED2
S113FB98742D4C656E6774683A2025640048545483
S113FBA8502F312E312032303020256500485454EE
S113FBB8502F312E312032303620256500484541FA
S113FBC844202F6669726D776172652F2564204819
S113FBD85454502F312E310D0A486F73743A20252E
S113FBE8730D0A557365722D4167656E743A206CFE
S113FBF86F676765722F312E300D0A0D0A0047456D
S113FC0854202F6669726D776172652F25642048C8
S113FC185454502F312E310D0A486F73743A2025ED
S113FC28730D0A52616E67653A2062797465733D93
S113FC3825642D25640D0A557365722D4167656E1B
S113FC48743A206C6F676765722F312E300D0A0D78
S113FC580A004368756E6B3A206C2025642072652F
S113FC687120256420626F6479202564004446204D
S113FC784F4B00505554202F7374617475732F259E
S113FC886C2F25642F25642F257320485454502F36
S113FC98312E310D0A486F73743A2025730D0A55B5
S113FCA87365722D4167656E743A206C6F6767657A
S10DFCB8722F312E300D0A0D0A00E0
S903E0001C
