:10D000000E94C8700E94117198E19093C1008091B4
:10D010006F00826080936F008BB18F7C80628BB9D0
:10D020009093C90082E390E00E94657082E091E0F5
:10D030000E94A2720E943F7580913306909134063F
:10D04000893D9E401CF01092320603C081E080931F
:10D05000320689E091E00E94A27284B7877F84BF84
:10D060008091600088618093600010926000A895B4
:10D0700089E38093600089E28093600084B71F9207
:10D080008F9383E191E09F938F930E94A6720F90FC
:10D090000F900F900F9008957F928F929F92AF9272
:10D0A000BF92CF92DF92EF92FF920F931F93CF9395
:10D0B000DF93E82EC1E0D0E080E8C82E82E0D82ED1
:10D0C00094EAA92E92E0B92E23EB822E22E0922E32
:10D0D00032E0732E43E0F42E0FEB12E0DF93CF9398
:10D0E000DF92CF920E94A6720E94A3760F900F90BB
:10D0F0000F900F90882321F0C13011F4EE2091F0B1
:10D1000087E992E00E94A2725F9A81E090E0F1D7F5
:10D110000E949D7681E090E0ECD70E949F768FE0A0
:10D1200090E0E7D7BF92AF920E94A6720E94A376CA
:10D130001F928F939F928F920E94A6720F900F90D2
:10D140000F900F900F900F90EE2079F0DF91CF911C
:10D150001F910F91FF90EF90DF90CF90BF90AF9015
:10D160009F908F907F900C94A3760E94A37681115C
:10D170000CC00E94A17681E090E0BBD72196C4301C
:10D18000D10509F0ABCF80E01DC081E090E0B1D7C0
:10D190001F921F921F921F921F927F921F92FF92C7
:10D1A0001F92FF921F930F930E9432782DB73EB7C4
:10D1B000245F3F4F0FB6F8943EBF0FBE2DBF8111C5
:10D1C000D8CF81E0DF91CF911F910F91FF90EF9029
:10D1D000DF90CF90BF90AF909F908F907F900895F9
:10D1E00028ED3EE03F932F932EE234E03F932F93C0
:10D1F0009F938F930E943D7121E00F900F900F90AD
:10D200000F900F900F90019709F020E0822F089562
:10D21000E7CF0E947E7621E434E03F932F939F93E3
:10D220008F930E943D7121E00F900F900F900F900F
:10D23000019709F020E0822F08950E947E7621E573
:10D2400034E03F932F939F938F930E943D7121E091
:10D250000F900F900F900F90019709F020E0822F10
:10D260000895AF92BF92CF92DF92EF92FF920F9309
:10D270001F93CF93DF93D82FB92EC3E009EA13E0B1
:10D2800088E0E82E89E6F82E94E1A92E21E6C22E48
:10D2900024E0D22E1092D90E1092D80E1F930F9325
:10D2A000BF92DF93FF92EF921F92AF92DF92CF92E5
:10D2B0000E946E782DB73EB7265F3F4F0FB6F894A9
:10D2C0003EBF0FBE2DBF813039F082E090E011D714
:10D2D000C15001F780E00AC09CDF8823B1F3809140
:10D2E000D80E9091D90E892B81F381E0DF91CF91F7
:10D2F0001F910F91FF90EF90DF90CF90BF90AF9074
:10D3000008952F923F924F925F926F927F928F92E9
:10D310009F92AF92BF92CF92DF92EF92FF920F93C4
:10D320001F93CF93DF93482E392E9BDF811102C0CC
:10D3300080E099C0E090D80EF090D90EC0E0D0E027
:10D3400090E5292E26EF822E24E0922ECE15DF05C1
:10D3500008F084C083E0582E6701CC1ADD0A5E0114
:10D3600021E0A21AB108860131E0C31636E0D306E7
:10D3700010F000E016E01092D90E1092D80EC50100
:10D38000800F911F9F938F93DF93CF9329EA33E010
:10D390003F932F933F924F9220EF38E63F932F9386
:10D3A0001F922F9222EA34E03F932F930E946E78CF
:10D3B0002DB73EB7225F3F4F0FB6F8943EBF0FBE6A
:10D3C0002DBF813009F043C038DF882309F43FC006
:10D3D0000E948D769F938F931F930F938091D90E08
:10D3E0008F938091D80E8F939F928F920E94A672F6
:10D3F0000E948D763C018DB79EB708960FB6F894C3
:10D400009EBF0FBE8DBF0615170509F50E948176D8
:10D410008C016114710409F499CFA30191E069169C
:10D42000790610F040E051E04093D80E5093D90EA9
:10D43000B801CE010E94C27A8091D80E9091D90E87
:10D44000C80FD91F681A790A080F191FE2CF82E0A6
:10D4500090E04FD65A94511086CF6ACF81E195E083
:10D460000E94A27281E0DF91CF911F910F91FF90F6
:10D47000EF90DF90CF90BF90AF909F908F907F9074
:10D480006F905F904F903F902F900895DF92EF92B2
:10D49000FF920F931F93CF93DF93D82FC3E009EA36
:10D4A00013E08EE1D82E97E1E92E95E0F92E109247
:10D4B000D90E1092D80E0E9478731F930F939F93EA
:10D4C0008F93809131068F93809130068F931F92B6
:10D4D000DF93809166058F93809165058F9380918E
:10D4E00064058F93809163058F931F921F921F9203
:10D4F000DF92FF92EF920E946E782DB73EB72E5EBC
:10D500003F4F0FB6F8943EBF0FBE2DBF87FF07C039
:10D5100082E090E0EED5C15051F680E004C079DEA3
:10D520008823B1F381E0DF91CF911F910F91FF909C
:06D53000EF90DF9008956A
:10E000003DC0000057C0000055C0000053C00000D4
:10E0100051C000004FC000004DC000004BC00000C8
:10E0200024C3000047C0000045C0000043C00000FA
:10E0300041C00000F7C200003DC000003BC000002E
:10E0400039C0000037C0000035C0000033C00000F8
:10E0500031C000002FC000002DC000002BC0000008
:10E0600029C0000027C0000025C0000023C0000018
:10E0700021C000001FC000001DC0000011241FBEF1
:10E08000CFEFD0E1DEBFCDBF15E0A0E0B1E0ECE125
:10E09000F7EF02C005900D92AE35B107D9F72EE02B
:10E0A000AEE5B5E001C01D92AA3DB207E1F7C5D3C8
:10E0B0000C948C7BA5CF80916105909162050196AF
:10E0C00090936205809361050895209161053091D8
:10E0D000620564E670E00E94077B80916105909183
:10E0E0006205821B930B8617970710F4A895F5CF4E
:10E0F000089540916105509162052AE0BC01269F78
:10E10000C001279F900D1124209161053091620577
:10E11000241B350B2817390710F4A895F5CF08955F
:10E12000F999FECF42E050E060E074E084EC95E0C5
:10E130000E94657B41E650E060E070E083E695E098
:10E140000E94657B80917205823010F010927205FA
:10E150008091630590916405A0916505B091660575
:10E160008F3F9F4FAF4FBF4F41F410926305109206
:10E17000640510926505109266050895F999FECF21
:10E1800042E050E060E074E084EC95E00C94757B34
:10E19000E1E6F0E080E88083108290EE91B912B859
:10E1A00093E094B915B894E797B998E898B99AE7C5
:10E1B0009AB99AEB9BB914BC15BC16BC17BC18BC19
:10E1C000109280009AE0909381009CE490938500E7
:10E1D00010928400109287001092860093EB909327
:10E1E00089009FEF9093880010928B0010928A0014
:10E1F0001092B6001092B0001092B1001092B200CE
:10E200001092B3001092B40010926E0092E09093BE
:10E210006F001092700080BF10927B0010927F0000
:10E2200008951092C0001092C10086E08093C20051
:10E230001092C50097E19093C40092E09093C800BB
:10E240001092C9008093CA001092CD008BE0809399
:10E25000CC008DEF80937E0080EC80937C0087E083
:10E2600080937A0010927B001CBC1092BC0010922C
:10E2700069001DBA109268000895CF92DF92EF9264
:10E28000FF921F93CF93DF93CDB7DEB7CA84DB84B1
:10E290002C853D85D9018C918E3511F42F5F3F4F30
:10E2A000FE013E9680E01AE0D9019C91992309F481
:10E2B0007AC0953209F06BC0A9014E5F5F4FD9015A
:10E2C00011969C91953629F128F4923699F094365E
:10E2D00089F067C0903791F0933709F062C0BF01B1
:10E2E0006E5F7F4F0190F081E02DD9011296FC9076
:10E2F000960141C0760160E070E00DC09F012E5F85
:10E300003F4F0190F081E02D309761F1D182C082C2
:10E3100029C09F0127C06701D7013C91BFEFEB1ACD
:10E32000FB0A20ED230F2A3068F4169FD001179FB7
:10E33000B00D1124232F30E020533109B9016A0FA9
:10E340007B1FE9CF9F012E5F3F4F0190F081E02DB1
:10E35000923621F4309731F0608304C0309711F089
:10E36000718360838F5FF9011CC0992351F030974E
:10E3700011F0908331966901D9019D919D01F912A7
:10E38000F4CF309709F010828F5FFB010AC0D601ED
:10E390004C91941308C0A9014F5F5F4FBFEFCB1A98
:10E3A000DB0A9A0181CF90E0DF91CF911F91FF901E
:10E3B000EF90DF90CF9008957F928F929F92AF92CF
:10E3C000BF92CF92DF92EF92FF920F931F93CF9362
:10E3D000DF93EC01FA018AE0882E912CA12CB12C5C
:10E3E000DB018C91882309F47AC06B01853209F036
:10E3F0006BC082E0C80ED11CDB0111968C91843673
:10E40000E1F038F4833209F44BC0823609F063C07E
:10E4100014C08C3651F0833709F05DC08F010E5F58
:10E420001F4FA081B181FE0135C08F010C5F1F4FCE
:10E43000208131814281538107C08F010E5F1F4FC0
:10E440002081318140E050E07C2EEC2EFD2ECA016F
:10E45000B901A50194010E941B7B605DD7016D93FA
:10E460007D019A2F9719211531054105510579F73D
:10E47000892FDE01823058F02C91E82FF0E031979F
:10E48000EA0FFB1F30813D9320838250F3CFC90FE9
:10E49000D11D22C0EF018D918823F1F08193FACF35
:10E4A0008F010C5F1F4F20813181DE018281ED01E0
:10E4B000F90191919F01992379F0882369F08150A6
:10E4C000933251F09D93F3CF9FEFC91AD90A8883F5
:10E4D0008F01219601C08F01F801B60181CF18820A
:10E4E000CE01DF91CF911F910F91FF90EF90DF90C0
:10E4F000CF90BF90AF909F908F907F900895CF93D3
:10E50000DF93CDB7DEB7AE01475F5F4F6F81788590
:10E510008D819E8151DFDF91CF9108959091C80048
:10E5200095FFFCCF8093CE000895FC019191992333
:10E5300041F0A8958091C80085FFFCCF9093CE0054
:10E54000F5CF0895F2DF83EF94E0EFCFCF93DF9321
:10E55000CDB7DEB7AE014B5F5F4FFA0161917191AC
:10E56000AF0186EC95E028DF86EC95E0DEDF83EFF7
:10E5700094E0DBDFDF91CF910895CF93C82F811115
:10E5800003C08AE391E002C088E291E0DBDF84E629
:10E5900090E09BDD10923D0680EE81B912B883E0D9
:10E5A00084B915B897E797B988B98AE78AB980E23C
:10E5B0008BB91092C90080916F008D7F80936F009E
:10E5C00084B7C1110CC0886084BFA8958091600099
:10E5D00088618093600081EE8093600009C0877F2E
:10E5E00084BF809160008861809360001092600019
:10E5F00010923806109237068091370690913806AF
:10E60000409748F483B7846083BF83B7816083BF3A
:10E6100088950000F1CF80E00E94006884E491E0DA
:10E62000CF9190CF1F920F920FB60F9211242F937C
:10E630003F934F935F936F937F938F939F93AF938A
:10E64000BF93EF93FF9337DDFF91EF91BF91AF91B0
:10E650009F918F917F916F915F914F913F912F91FA
:10E660000F900FBE0F901F9018951F920F920FB62C
:10E670000F9211248F939F938091370690913806C3
:10E68000089690933806809337069F918F910F904C
:10E690000FBE0F901F901895F89481E085BF15BEAE
:10E6A000A895E0E6F0E089E3808389E28083109218
:10E6B0008100AFE6B0E08C918D7F8C9325B790817F
:10E6C00084B71F922F931F929F931F928F9383E67D
:10E6D00091E09F938F933ADFA8958DB79EB70896E8
:10E6E0000FB6F8949EBF0FBE8DBFE0E0F0E0099436
:10E6F00081E991E00895680F791F8617970709F15E
:10E70000FC01249154274527542742279A01332797
:10E71000E4E036952795EA95E1F7422753279A01D9
:10E72000322F22273295307F422753279A013327F1
:10E73000A5E0220F331FAA95E1F742275327019640
:10E74000DCCFCA01089510922A0646E050E060E04E
:10E750007FEC8CE296E0A0D74FEF5FEF60E07FECBC
:10E7600080E090E0C8DF80933506909336069F9353
:10E770008F9380912F068F9380912E068F93809197
:10E7800031068F93809130068F9385E991E09F93B6
:10E790008F93DCDE8DB79EB708960FB6F8949EBFB8
:10E7A0000FBE8DBF80912C0690912D068D349E4416
:10E7B00071F420912E0630912F06809135069091AC
:10E7C00036062817390719F481E080932A06089540
:10E7D000CF9382EB91E0B6DE80E00E944C6881111D
:10E7E00002C0C0E026C080910001882329F081E0AA
:10E7F0006ED68823B1F304C009D5882391F3F7CFEF
:10E8000083E00E94466A882361F38091C405909159
:10E81000C5050E948169882331F095DFC0912A06E1
:10E82000C11104C001C0C0E084E001C081E00E94C9
:10E83000466A75D68C2FCF910895F894C1E0C5BF74
:10E8400082E085BF7894A89581E00E94006868DC2A
:10E8500089E38093600089E28093600084B78370CD
:10E8600011F0C0933D0684B7909166059F939091F7
:10E8700065059F93909164059F93909163059F9385
:10E880009091C5059F939091C4059F931F928F937C
:10E8900081E991E09F938F9382EC91E09F938F9316
:10E8A00055DE8091C4059091C505019721E04DB7D3
:10E8B0005EB7445F5F4F0FB6F8945EBF0FBE4DBFAB
:10E8C0008E3F9F4F08F020E020932B0610923E06CB
:10E8D0003AD280930001882319F080EE91E032DE75
:10E8E00032DF80912B06811104C080912A068111AC
:10E8F000D3DE80912A0681110BC080912B068111F5
:10E9000007C081E080932B061092C5051092C405C4
:10E91000CBEED1E080912B06A8958823E9F3809176
:10E920003206882351F0FBD50EDF80912A0688231A
:10E9300011F0B2DE02C081E020DE4ADF882349F018
:10E9400010922B061092C5051092C40517DCA4DEA8
:10E95000E1CF80913E061F928F93DF93CF93F6DD38
:10E9600080913E068F5F80933E060F900F900F9030
:10E970000F90833028F0E7DE80912A0681118CDE2B
:10E98000CED580E0FADDC6CF806C80937C0081E03C
:10E9900090E09BDB80917A00806480937A00809184
:10E9A0007A0084FFFCCF80917A00806180937A00A6
:10E9B000809178009091790008958F929F92AF9204
:10E9C000BF92CF92DF92EF92FF920F931F93CF935C
:10E9D000DF93882E87E880937A008AE090E075DBE9
:10E9E00080917A00806880937A004AE0942E0FEF3D
:10E9F0001FEFA12CB12CC0E0D0E0882DC5DF9C0119
:10EA0000A0E0BAE03AD66B017C013AE0F694E794D4
:10EA1000D794C7943A95D1F78AE090E056DBC501C8
:10EA2000A0E0B0E08C159D05AE05BF0508F45601C9
:10EA3000C801A0E0B0E0C816D906EA06FB0608F453
:10EA40008601CC0DDD1D9A949110D7CFCE018A1985
:10EA50009B09801B910B10927A0023E09695879575
:10EA60002A95E1F7DF91CF911F910F91FF90EF90E1
:10EA7000DF90CF90BF90AF909F908F9008950898AF
:10EA8000109881E09ADF880F991F8C599F4F9093BF
:10EA90003406809333069F938F9384E092E09F9394
:10EAA0008F9354DD0F900F900F900F9008950F9358
:10EAB0001F93CF93DF93CDB7DEB72A970FB6F894A5
:10EAC000DEBF0FBECDBFFC019F018191811102C04D
:10EAD00080E02DC08934C1F780818436A9F7818117
:10EAE0008A3391F78E010F5F1F4F1F930F938EE0B4
:10EAF00092E09F938F933F932F93BFDB0F900F90E4
:10EB00000F900F900F900F90019711F7F801A0ED63
:10EB1000BEE09E012A5F3F4F8191811101C08AE2D0
:10EB20008D932E173F07C1F71092D50E81E02A96DC
:10EB30000FB6F894DEBF0FBECDBFDF91CF911F910E
:10EB40000F910895CF93DF9300D0CDB7DEB79E012C
:10EB50002F5F3F4F3F932F932F5F3F4F3F932F9355
:10EB600025E132E03F932F939F938F9386DB0FB67F
:10EB7000F894DEBF0FBECDBF029729F48A8180933F
:10EB8000D60E81E001C080E00F900F90DF91CF9111
:10EB900008952F923F924F925F926F927F928F9241
:10EBA0009F92AF92BF92CF92DF92EF92FF920F931C
:10EBB0001F93CF93DF93CDB7DEB769970FB6F89465
:10EBC000DEBF0FBECDBF988F8F8B8E01095E1F4FAA
:10EBD0001F930F9381E292E09F938F93888D8F9381
:10EBE0008F898F934ADB0F900F900F900F900F90AB
:10EBF0000F90019709F068C0212C2E0125E1420EEB
:10EC0000511C7E013BE0E30EF11CCE0101963C015C
:10EC10005E0196E1A90EB11C9BE2892E92E0992E2D
:10EC2000EF89F88D8081883209F04BC01F930F93D4
:10EC30005F924F92FF92EF927F926F921F921F927C
:10EC4000BF92AF929F928F92FF93EF9316DB0FB616
:10EC5000F894DEBF0FBECDBF059799F530916005E2
:10EC6000398F3A3028F58AE5C82E8EE0D82E312C1F
:10EC7000398D331651F0B701C60117D52CE0C20EFD
:10EC8000D11C892BA9F03394F3CF2CE0239DC00134
:10EC90001124FC01E85AF14F2E8920832D8921830C
:10ECA000B701865A914F0AD5339430926005239468
:10ECB000EF89F88D80818C3221F43196F88FEF8BBB
:10ECC000AFCF81E0211001C080E069960FB6F894C3
:10ECD000DEBF0FBECDBFDF91CF911F910F91FF908F
:10ECE000EF90DF90CF90BF90AF909F908F907F90EC
:10ECF0006F905F904F903F902F9008958FE396E034
:10ED000008958091410E9091420E97FD03C0815C61
:10ED1000994F089580E090E008952091410E309140
:10ED2000420E37FD07C080913F0E9091400E821B2E
:10ED3000930B089580E090E00895449A08954498D4
:10ED400008955F98089586B186FB882780F991E041
:10ED50008927089524E432E03F932F939F938F9364
:10ED60008CDA21E00F900F900F900F90019709F02F
:10ED700020E0822F08952CE432E03F932F939F935D
:10ED80008F937BDA21E00F900F900F900F900197F7
:10ED900009F020E0822F089527E532E03F932F937A
:10EDA0009F938F936ADA21E00F900F900F900F904E
:10EDB000019709F020E0822F089524E632E03F9386
:10EDC0002F939F938F9359DA21E00F900F900F901C
:10EDD0000F90019709F020E0822F08958091C000E4
:10EDE00087FF08C09091C0008091C6009C7111F40B
:10EDF00090E008958FEF9FEF08957F928F929F92FA
:10EE0000AF92BF92CF92DF92EF92FF920F931F9338
:10EE1000CF93DF93F82EC92F8B015A01D22F8EE3A7
:10EE20007DDB8F2D9C2F81DBA895EF2DFC2F819111
:10EE3000882349F09091C00095FD02C00000FACFF0
:10EE40008093C600F4CFC0906105D09062058AE03F
:10EE5000809F7001819FF00C112410923F06109248
:10EE6000400E10923F0EC0E000E010E0A8958091A7
:10EE70006105909162058C199D098E159F0518F00A
:10EE8000D1115BC0C3C0AADF97FDF0CF682F2091DE
:10EE90003F0E3091400E2F3F374020F01092400E31
:10EEA00010923F0E40913F0E5091400E9A012F5FFD
:10EEB0003F4F3093400E20933F0EFA01E15CF94F33
:10EEC0008083F901E15CF94F1082D13049F4CC2301
:10EED00039F0C0906105D090620544E0E42EF12C39
:10EEE0006A3021F6201B310B233031054CF4C090E1
:10EEF0006105D0906205C1E094E0E92EF12C18C0C4
:10EF0000D11116C0015C194FC80124DF811115C051
:10EF1000C80131DF882321F08DE692E013DB76C053
:10EF2000C8013ADF811109C0C80147DF811105C05E
:10EF300000913F0E1091400E99CF8FEF9FEF90936D
:10EF4000420E8093410E8FE3E82E86E0F82E00E01B
:10EF500010E0812C912CC0E080913F0E9091400EEA
:10EF6000081719070CF041C00F5F1F4FF70181917F
:10EF70007F018A3089F7708010828CE3CFDAC40178
:10EF8000815C994F6C01D1DAD13081F4C8018819C4
:10EF900099090397D4F4F801E15CF94F708210935A
:10EFA000420E0093410EF60110821FC0D11119C00C
:10EFB000C801881999090397A4F0C601CBDE811115
:10EFC00010C0C601E9DE81110CC0A114B10449F0E2
:10EFD000C601F50109958823D9F084E792E0B2DAF9
:10EFE000CF5FF70170824801B7CF8C2F0C2E000C39
:10EFF000990B9F93CF938AE792E09F938F93A6DA22
:10F000000F900F900F900F908C2F06C08FEF04C0C1
:10F0100087E792E097DAE5CFDF91CF911F910F91CB
:10F02000FF90EF90DF90CF90BF90AF909F908F9028
:10F030007F90089520E0E1CECF93DF93CDB7DEB788
:10F04000AE01455F5F4F6D817E818FE396E0B4D95D
:10F0500049855A856F8178858FE396E0EBDFDF91F4
:10F06000CF910895EF92FF920F931F93CF93DF9369
:10F07000CDB7DEB7E988FA8800E010E08D859E857F
:10F08000081719071CF5AE014B5E5F4F69857A853D
:10F090008FE396E091D94B895C896B857C858FE302
:10F0A00096E0C8DF94E6E916F10419F4181644F462
:10F0B0000EC0282F082E000C330BE216F30639F091
:10F0C0008F85988916D80F5F1F4FD8CF8FEFDF91AC
:10F0D000CF911F910F91FF90EF900895CF93DF9301
:10F0E000CDB7DEB7AE01455F5F4F6D817E818FE3A7
:10F0F00096E062D921E049855A856F8178858FE352
:10F1000096E07BDEDF91CF9108950F931F93CF930D
:10F11000DF93CDB7DEB72A970FB6F894DEBF0FBEE8
:10F12000CDBF809172058130F1F41F9284E08F93FE
:10F1300023E735E03F932F931F928F9388E795E065
:10F140009F938F9385ED92E09F938F938E010F5F36
:10F150001F4F1F930F93D3D90FB6F894DEBF0FBE86
:10F16000CDBFC80108C080915F053CE0839FC0010E
:10F170001124865A914F9F938F931F921F921F9233
:10F1800082E08F938AED92E09F938F9355DF91E019
:10F190000FB6F894DEBF0FBECDBF811190E0892F6E
:10F1A0002A960FB6F894DEBF0FBECDBFDF91CF9188
:10F1B0001F910F910895CF93DF9300D0CDB7DEB7A5
:10F1C0009E012F5F3F4F3F932F932F5F3F4F3F9302
:10F1D0002F937F936F939F938F934FD80FB6F8948D
:10F1E000DEBF0FBECDBF029729F499819B7F81E0DE
:10F1F000913009F080E00F900F90DF91CF9108954A
:10F200006DEE72E0D8CF6AEF72E0D5CFCF9386EE85
:10F2100091E098D91092D60EC0910001C11146C05C
:10F2200040E050E063E070E084E293E003DF87FDBC
:10F230003EC090917205911105C081E020915E055C
:10F24000213009F480E08093D70E10925F05109270
:10F250006005992321F080E393E074D927C08823C7
:10F26000D1F389EC95E79F938F931F9284E68F9358
:10F270001F928AE08F931F928FE08F931F928AE5EF
:10F280008F9388E393E09F938F93ECDE2DB73EB787
:10F29000245F3F4F0FB6F8943EBF0FBE2DBF181628
:10F2A00034F4809160058111D6CF01C0C1E08C2F6C
:10F2B000CF910895DF92EF92FF920F931F93CF9318
:10F2C000DF93809100018111CFC08091D70E811111
:10F2D00027C08AE090E00E94797080915E058130BD
:10F2E00079F180E099E79F938F931F9281E08F934C
:10F2F0001F9284E08F931F928EE18F931F9283E081
:10F300008F9384E493E09F938F93ACDE2DB73EB749
:10F31000245F3F4F0FB6F8943EBF0FBE2DBF10C005
:10F3200090915F0580916005981730F0809172058B
:10F33000811102C080E0C3C0E8DE8111CACFFACFDC
:10F3400083E099E79F938F931F9281E08F931F92A1
:10F3500084E08F931F928FE08F931F9283E08F93AF
:10F360008FE493E09F938F937DDE2DB73EB7245FAC
:10F370003F4F0FB6F8943EBF0FBE2DBF8130D1F680
:10F3800040E050E063E070E08BE593E053DE87FD02
:10F39000D1CF47E555E763E070E086E693E04ADECB
:10F3A000813041F642EA55E763E070E083E793E09D
:10F3B00041DED82F813009F0BDCF8091D60E8C3040
:10F3C00008F4B8CF1F921F921F921F921F92DF93D3
:10F3D0001F9282E08F931F928F938CE793E09F930D
:10F3E0008F9340DE2DB73EB7245F3F4F0FB6F894A2
:10F3F0003EBF0FBE2DBF87FD9DCF809101011F92A3
:10F400008F931F921F921F92CAE0CF9389E893E0D7
:10F410009F938F9311DE809101011F928F931F9212
:10F420001F921F921F921F92DF931F92CF931F92E2
:10F43000CF9389E993E09F938F9314DE2DB73EB766
:10F440002A5E3F4F0FB6F8943EBF0FBE2DBF87FD1B
:10F4500071CFC4E0D0E009EA13E088E2D82E9AEC3C
:10F46000E92E93E0F92E16C042EA55E763E070E01A
:10F4700083E793E0DFDD813009F05CCF8091D60E29
:10F480008A3038F757CF81E090E00E947970219759
:10F4900009F450CF1F930F931F921F921F92DF9278
:10F4A000FF92EF92C9DD2DB73EB7285F3F4F0FB6F1
:10F4B000F8943EBF0FBE2DBF87FDE5CF81E0DF9101
:10F4C000CF911F910F91FF90EF90DF900895CF9310
:10F4D000C82F8CEE93E036D810925F05EBDE8111D9
:10F4E00018C0CC23D1F090910001911116C09091D9
:10F4F0005F0520916005921780F42091720521111B
:10F500000CC08091D70E882341F09F5F90935F05D8
:10F51000E5CF84EF93E016D881E0CF910895CF93A3
:10F5200012DC882361F18FEF93E00CD840E050E0CB
:10F5300061E070E085E094E07DDD40E050E061E076
:10F5400070E08BE094E076DD40E050E061E070E058
:10F550008AE194E06FDDCFE0F6DB811105C0F3DBDB
:10F56000882349F0EEDB07C081E090E00E947970CB
:10F57000C15091F7F4CF85E294E00E94A27281E03D
:10F58000CF9108950F931F93CF938A015FB7F8949B
:10F59000A895F999FECFA89523E0FC012093570088
:10F5A000E89507B600FCFDCFA0E0B0E0C1E0A017F1
:10F5B000B10758F4FB014081218130E0322F22272E
:10F5C000240F311D6E5F7F4F02C02FEF3FEFFC0114
:10F5D000EA0FFB1F0901C0935700E895112412960A
:10F5E000A115F1E0BF0719F7A89525E0FC012093CC
:10F5F0005700E89507B600FCFDCFA89581E1809300
:10F600005700E8955FBFCF911F910F910895AA1BF6
:10F61000BB1B51E107C0AA1FBB1FA617B70710F0FD
:10F62000A61BB70B881F991F5A95A9F7809590952F
:10F63000BC01CD010895A1E21A2EAA1BBB1BFD013E
:10F640000DC0AA1FBB1FEE1FFF1FA217B307E407C1
:10F65000F50720F0A21BB30BE40BF50B661F771F19
:10F66000881F991F1A9469F76095709580959095F9
:10F670009B01AC01BD01CF010895A29FB001B39FD2
:10F68000C001A39F700D811D1124911DB29F700DAB
:10F69000811D1124911D0895FB01DC0102C005901C
:10F6A0000D9241505040D8F70895FB01DC018D9137
:10F6B000019080190110D9F3990B0895FB01DC0129
:10F6C00001900D920020E1F70895DC01CB01FC01CF
:10F6D000F999FECF06C0F2BDE1BDF89A319600B4AB
:10F6E0000D9241505040B8F70895DC01CB0102C0A3
:10F6F0002D9105D041505040D8F70895262FF99903
:10F70000FECF1FBA92BD81BD20BD0FB6F894FA9A04
:0CF71000F99A0FBE01960895F894FFCFFF
:10F71C00010157616B65757000456E61626C652007
:10F72C00574400456E642077616B6575703A204DC7
:10F73C004355535220256400506F776572446F77A0
:10F74C006E20466F726576657200506F77657244F5
:10F75C006F776E00506F776572446F776E20656EB1
:10F76C006400303132333435363738394142434412
:10F77C004546004A756D7020746F206170702C20A6
:10F78C004D435553523A2025642C2057445443532F
:10F79C00523A2025642C204D435543523A2025647F
:10F7AC0000332E360041505020763A2025642C2010
:10F7BC006372633A2025642C20616372633A2025BE
:10F7CC0064005374617274205357205570646174D3
:10F7DC006500424C207625732072723A2025642CE9
:10F7EC002070753A2025642C2069643A20256C0021
:10F7FC0053484F525420494E49540055706772611A
:10F80C006465207265747279202564206661696C68
:10F81C0065642E0042415420763A202564004964E8
:10F82C003A257320002B4353513A2025622C256234
:10F83C00002B434F50533A202570002825622C2270
:10F84C002573222C222573222C222573222C25622F
:10F85C00292570005E4F4B0D0A2565005E455252FE
:10F86C004F520D0A2565005E434F4E4E4543540DD5
:10F87C000A2565005E5244590D0A2565003C455227
:10F88C00524F52003A29003A28003D3E2025640090
:10F89C0053657474696E67206D6F64656D206F6E4F
:10F8AC002E20522025640049676E697465206D6FA7
:10F8BC0064656D0061667465722069676E69746950
:10F8CC006F6E004D6F64656D206973202564004177
:10F8DC00540D0A002B5153494D535441543A202591
:10F8EC00622C256200252325230041542B434F50C5
:10F8FC00533D312C322C222573220D0A002B4352FE
:10F90C0045473A2025622C2562002B434752454738
:10F91C003A2025622C2562002B43455245473A205C
:10F92C0025622C2562002353474143543A2025621B
:10F93C002C25620041542B434F50533D300D0A008F
:10F94C00494E4954204F4B0041542B434F50533D8B
:10F95C003F0D0A0041542B435245473F0D0A0041CD
:10F96C00542B43475245473F0D0A0041542B434FFC
:10F97C0050533F0D0A0041542B514E57494E464FA0
:10F98C000D0A0041542B4353510D0A0041542B4393
:10F99C00474154543D310D0A0041542B43474143D8
:10F9AC00543D25622C300D0A0041542B43474143F2
:10F9BC00543D25622C310D0A00626F6F746C6F61BF
:10F9CC006465722D73746167696E672E6865726FFA
:10F9DC006B756170702E636F6D0041542B51494FE4
:10F9EC0050454E3D312C302C22544350222C222594
:10F9FC0073222C38302C302C320D0A00434F4E4ED3
:10FA0C0045435400434F4E4E454354204F4B004307
:10FA1C004C4F5345002B2B2B0D0A0041542B5149B5
:10FA2C00434C4F53453D300D0A0041542B51504F20
:10FA3C0057440D0A00434C4F5345204F4B00436F26
:10FA4C006E74656E742D4C656E6774683A2025640F
:10FA5C0000485454502F312E31203230302025653F
:10FA6C0000485454502F312E312032303620256529
:10FA7C000048454144202F6669726D776172652F8D
:10FA8C00256420485454502F312E310D0A486F7381
:10FA9C00743A2025730D0A557365722D4167656E96
:10FAAC00743A206C6F676765722F312E300D0A0D1A
:10FABC000A00474554202F6669726D776172652F75
:10FACC00256420485454502F312E310D0A486F7341
:10FADC00743A2025730D0A52616E67653A2062797B
:10FAEC007465733D25642D25640D0A557365722D5F
:10FAFC004167656E743A206C6F676765722F312EA3
:10FB0C00300D0A0D0A004368756E6B3A206C202587
:10FB1C00642072657120256420626F6479202564ED
:10FB2C00004446204F4B00505554202F7374617481
:10FB3C0075732F256C2F25642F25642F2573204872
:10FB4C005454502F312E310D0A486F73743A2025BE
:10FB5C00730D0A557365722D4167656E743A206C8E
:0EFB6C006F676765722F312E300D0A0D0A008B
:040000030000E00019
:00000001FF
